:020000040000FA
:10000000680120206D0100007101000073010000F3
:1000100000000000000000000000000000000000E0
:10002000000000000000000000000000750100005A
:10003000000000000000000077010000790B0000C4
:100040007B0100007B0100007B0100007B010000C0
:100050007B0100007B0100007B0100007B010000B0
:10006000000000007B0100007B0100000000000098
:10007000000000007B0100007B0100007B0100000C
:100080007B0100007B0100007B0100007B01000080
:100090007B0100007B010000000000000000000068
:1000A0007B0100007B010000000000000000000058
:1000B0007B010000000000007B0100007B010000CC
:1000C00000F002F800F042F812A030C808382418F6
:1000D0002D18AC4201D100F039F80FCCA246AB4646
:1000E0000CA730CF2D1B083F3F197C427F1E544484
:1000F0002D090426F441641EAC4201D300F026F819
:100100000126334200D0FB1A3343984754465D46DC
:10011000DFE70000C4120000D4120000000000005D
:100120007047000000000000002300240025002686
:10013000103A01D378C1FBD8520700D330C100D5A3
:100140000B6070471FB51FBD10B510BD00F023F93F
:100150001146FFF7F7FF00F021FD00F03BF903B473
:10016000FFF7F2FF03BC00F041F90000064800472A
:10017000FEE7FEE7FEE7FEE7FEE7FEE70348044989
:10018000024A044B70470000C100000068002020B4
:100190006801202068002020002203098B4273D3CD
:1001A000030A8B4258D3030B8B423CD3030C8B4284
:1001B00021D312E003460B437FD4002243088B4235
:1001C00074D303098B425FD3030A8B4244D3030BDE
:1001D0008B4228D3030C8B420DD30902FF2212BAA3
:1001E000030C8B4202D31212090265D0030B8B421F
:1001F00019D300E0090AC30B8B4201D3CB03C01A09
:100200005241830B8B4201D38B03C01A5241430BE3
:100210008B4201D34B03C01A5241030B8B4201D3D3
:100220000B03C01A5241C30A8B4201D3CB02C01A3E
:100230005241830A8B4201D38B02C01A5241430AB6
:100240008B4201D34B02C01A5241030A8B4201D3A5
:100250000B02C01A5241CDD2C3098B4201D3CB014C
:10026000C01A524183098B4201D38B01C01A5241FB
:1002700043098B4201D34B01C01A524103098B42FF
:1002800001D30B01C01A5241C3088B4201D3CB00EA
:10029000C01A524183088B4201D38B00C01A5241CD
:1002A00043088B4201D34B00C01A5241411A00D27D
:1002B00001465241104670475DE0CA0F00D04942E6
:1002C000031000D3404253409C46002203098B4256
:1002D0002DD3030A8B4212D38901FC2212BA030ADE
:1002E0008B420CD3890192118B4208D38901921160
:1002F0008B4204D389013AD0921100E08909C309E5
:100300008B4201D3CB01C01A524183098B4201D3E6
:100310008B01C01A524143098B4201D34B01C01AD1
:10032000524103098B4201D30B01C01A5241C30849
:100330008B4201D3CB00C01A524183088B4201D3B8
:100340008B00C01A5241D9D243088B4201D34B00D3
:10035000C01A5241411A00D201465241104663462A
:100360005B1001D34042002B00D5494270476346E1
:100370005B1000D3404201B50449002802DC491C4F
:10038000084000E00846C046C04602BDFFFFFF7FB0
:10039000704770477047754600F024F8AE46050078
:1003A00069465346C008C000854618B020B5FFF71F
:1003B000E5FE60BCB64600260027C0C5C0C5C0C566
:1003C000C0C5C0C5C0C5C0C5C0C5403D490849007D
:1003D0008D46704710B50446C046C0462046FFF71C
:1003E000BEFE10BD004870470000202001491820C3
:1003F000ABBEFEE7260002007047811E091F00BF4A
:10040000FCD27047F0B5002835D003250540012106
:100410000904464A524B002D04462AD05A60002453
:100420009C6005261E601F680F4208D11F680F429E
:1004300005D11F680F4202D11F680F42F3D01C6024
:10044000012D03D1441E04282DD214E05A609C6073
:100450001E601F680F4208D11F680F4205D11F6838
:100460000F4202D11F680F42F3D01C60022D03D14E
:10047000841E042817D2F0BD5A609C601E601D685F
:100480000D4208D11D680D4205D11D680D4202D1F3
:100490001D680D42F3D01C60C41E042803D2EAE795
:1004A0001860241FE7D05A600020986005251D6061
:1004B0001E680E4208D11E680E4205D11E680E420B
:1004C00002D11E680E42F3D018605A6098601D6019
:1004D0001E680E4208D11E680E4205D11E680E42EB
:1004E00002D11E680E42F3D018605A6098601D60F9
:1004F0001E680E4208D11E680E4205D11E680E42CB
:1005000002D11E680E42F3D018605A6098601D60D8
:100510001D680D42C4D11D680D42C1D11D680D4238
:10052000BED11D680D42F3D0BAE7C046FF7C000083
:100530004001411E0A48416000218160052202609D
:10054000012212040368134208D10368134205D143
:100550000368134202D103681342F3D0016070476D
:1005600010E000E0B0B5B02000F034FA102000F048
:1005700031FA0025284600F02DFA0024204600F02C
:1005800059FA681C45B2002DF7D5B12000F022FAC7
:10059000102000F01FFA204600F01CFA0025284623
:1005A00000F048FA601C44B2002CF7D5B22000F0ED
:1005B00011FA102000F00EFA284600F00BFA002481
:1005C000204600F037FA681C45B2002DF7D5B3205D
:1005D00000F000FA102000F0FDF9204600F0FAF9D2
:1005E0000025284600F026FA601C44B2002CF7D5FE
:1005F000B42000F0EFF9102000F0ECF9284600F0EC
:10060000E9F90024204600F015FA681C45B2002DD7
:10061000F7D5B52000F0DEF9102000F0DBF9204618
:1006200000F0D8F90025284600F004FA601C44B216
:10063000002CF7D5B62000F0CDF9102000F0CAF953
:10064000284600F0C7F90024204600F0F3F9681CA2
:1006500045B2002DF7D5B72000F0BCF9102000F00E
:10066000B9F9204600F0B6F9002000F0E3F9601C6B
:1006700044B2002CF8D5B0BDF0B583B0029040B2C2
:10068000EB4D2E4610360028304600DA284601246D
:10069000E107019101602046FFF74AFF27072F601D
:1006A0002046FFF745FF2F612046FFF741FF0298E4
:1006B0004006304600D52846019901602046FFF7E4
:1006C00037FF2F602046FFF733FF2F612046FFF7EB
:1006D0002FFF02988006304600D528460199016018
:1006E0002046FFF725FF2F602046FFF721FF2F61EF
:1006F0002046FFF71DFF0298C006304600D5284669
:10070000019901602046FFF713FF2F602046FFF795
:100710000FFF2F612046FFF70BFF029800073046BE
:1007200000D52846019901602046FFF701FF2F60A0
:100730002046FFF7FDFE2F612046FFF7F9FE0298E5
:100740004007304600D52846019901602046FFF752
:10075000EFFE2F602046FFF7EBFE2F612046FFF7EC
:10076000E7FE02988007304600D5284601990160CF
:100770002046FFF7DDFE2F602046FFF7D9FE2F61F0
:100780002046FFF7D5FE0298C00700D02E460198FC
:1007900030602046FFF7CCFE2F602046FFF7C8FEF2
:1007A0002F612046FFF7C4FE2F602046FFF7C0FEF2
:1007B0002F612046FFF7BCFE03B0F0BD80B5AE2030
:1007C00000F008F9D52000F005F9802000F002F9CA
:1007D000A82000F0FFF83F2000F0FCF8D32000F044
:1007E000F9F8002000F0F6F8402000F0F3F8A1201E
:1007F00000F0F0F8C82000F0EDF8DA2000F0EAF898
:10080000122000F0E7F8812000F0E4F8CF2000F09B
:10081000E1F8D92000F0DEF8F12000F0DBF8DB2071
:1008200000F0D8F8302000F0D5F8A42000F0D2F87D
:10083000A62000F0CFF88D2000F0CCF8142000F0B6
:10084000C9F8AF2000F0C6F8FFF78CFE80BD0000AD
:10085000F0B583B016460C46400002907E30B021C1
:1008600001910843C0B200F0B5F8E700083FF8B2C4
:1008700004091034204600F0ADF808253D40284614
:1008800000F0A8F8300121494618214FF05D00F032
:10089000D1F8F619707800F0CDF8B07800F0CAF809
:1008A000F07800F0C7F8307900F0C4F8707900F003
:1008B000C1F8B07900F0BEF8F07900F0BBF802980A
:1008C000401E01990843C0B200F084F8204600F0B1
:1008D00081F8284600F07EF8307A00F0ABF8707AA4
:1008E00000F0A8F8B07A00F0A5F8F07A00F0A2F8CD
:1008F000307B00F09FF8707B00F09CF8B07B00F03C
:1009000099F8F07B00F096F803B0F0BDE60D00001A
:1009100000FEFFFFF0B587B003AC0FC4002B3FD043
:100920000698451E41420291801E019000271D4EEF
:1009300013E001210498C419059800F059F90A211F
:10094000FFF72AFC30220A43E1B20398FFF780FF49
:100950006D1E7F1C0698874222D038460299484077
:10096000401CE6D003200199C91B032901D20121B3
:1009700005E02A46824301217143121FFCD1FA434C
:10098000069BD2180240D5D0012A01D10A2005E0E9
:10099000022A02D07D20C00000E064204143C9E764
:1009A00007B0F0BD10270000F0B581B00646107802
:1009B00000280DD014460D4600277919C9B2C2B2DD
:1009C0003046FFF745FF7F1CF8B2205C0028F4D1C9
:1009D00001B0F0BDF0B581B000900124E607384FBA
:1009E0003E602046FFF7A4FD25073D602046FFF747
:1009F0009FFD3E612046FFF79BFD3D612046FFF7CE
:100A000097FD7820FFF738FE0020FFF735FE0098AD
:100A1000FFF732FE3E612046FFF78AFD3D6020462B
:100A2000FFF786FD3E602046FFF782FD01B0F0BD76
:100A300090120A40F0B581B000900124E607204FE3
:100A40003E602046FFF774FD25073D602046FFF716
:100A50006FFD3E612046FFF76BFD3D612046FFF7CD
:100A600067FD7820FFF708FE4020FFF705FE00989D
:100A7000FFF702FE3E612046FFF75AFD3D6020462B
:100A8000FFF756FD3E602046FFF752FD01B0F0BD76
:100A9000084809490160094881210160C1600120BD
:100AA00080030749086109200007086005480864B9
:100AB0007047C04690804240810001000C80424057
:100AC00090120A40004000900D4800210160032070
:100AD000C1430C48021F13680B4013604168012298
:100AE00091434160110242688A43426001683022AA
:100AF0009143016001680F22914301607047C04635
:100B000008030B4004010B40084809494160FF21DC
:100B10000906084A13688B43032189075918116095
:100B200000218160072101607047C04610E000E0AD
:100B3000FF7C000020ED00E080B500F007F8FFF733
:100B4000A7FFFFF7C1FFFFF7DFFF80BD80B50648B5
:100B500006494160064A5160064901601160102053
:100B6000FFF74BFC80BDC04600080A40030000B1FF
:100B700000280A400100002607480168491C01605E
:100B80007D22D200914205D1002101600120800325
:100B9000154908607047C04660002020FFF7CCFF71
:100BA000FFF70CFEFFF7DEFC01240DA220462146D4
:100BB000FFF7FAFE7D20C5002846FFF723FC0A4E0A
:100BC0000A4F2846FFF71EFCA00330603A68501C0D
:100BD0003860022003232146FFF79CFEF1E7C04660
:100BE00068656C6C6F000000B0120A406400202041
:100BF00043088B421AD3002203098B4279D3030A9C
:100C00008B425ED3030B8B4242D3030C8B4227D320
:100C10000902FF2212BA030C8B4202D312120902FC
:100C200003D0030B8B4233D31AE0D3E0411A804147
:100C3000401C704703460B4371D443088B42F5D3E5
:100C4000002203098B4254D3030A8B4239D3030B8E
:100C50008B421DD3030C8B4202D394466EE0090AEB
:100C6000C30B8B4201D3CB03C01A5241830B8B427F
:100C700001D38B03C01A5241430B8B4201D34B0368
:100C8000C01A5241030B8B4201D30B03C01A5241CD
:100C9000C30A8B4201D3CB02C01A5241830A8B4252
:100CA00001D38B02C01A5241430A8B4201D34B023B
:100CB000C01A5241030A8B4201D30B02C01A52419F
:100CC000CDD2C3098B4201D3CB01C01A5241830953
:100CD0008B4201D38B01C01A524143098B4201D38D
:100CE0004B01C01A524103098B4201D30B01C01AB8
:100CF0005241C3088B4201D3CB00C01A5241830832
:100D00008B4201D38B00C01A524143088B4201D35E
:100D10004B00C01A5241411A524110007047CA0F8D
:100D200000D04942031000D34042534000229C4669
:100D300003098B422DD3030A8B4212D38901FC2273
:100D400012BA030A8B420CD3890192118B4208D349
:100D5000890192118B4204D3890137D0921100E0AE
:100D60008909C3098B4201D3CB01C01A52418309BF
:100D70008B4201D38B01C01A524143098B4201D3EC
:100D80004B01C01A524103098B4201D30B01C01A17
:100D90005241C3088B4201D3CB00C01A5241830891
:100DA0008B4201D38B00C01A5241D9D243088B42E7
:100DB00001D34B00C01A5241411A00D201465241A0
:100DC000104663465B1000D34042704763465B1099
:100DD00000D3404201B50021004201D0C94308467A
:100DE000C046C04602BD0000000000000000000038
:100DF000000000000000000000F8000000000000FB
:100E000000333000000000100C06100C060000003B
:100E100000000000000040C07840C0784000043F5F
:100E200004043F040400007088FC0830000000182F
:100E300020FF211E0000F008F000E0180000002153
:100E40001C031E211E0000F00888700000001E21F7
:100E500023241927211010160E00000000000000A6
:100E6000000000000000000000E018040200000084
:100E700000071820400000020418E00000000040B5
:100E8000201807000000404080F08040400002022F
:100E9000010F01020200000000F00000000001014B
:100EA000011F01010100000000000000000080B0EF
:100EB00070000000000000000000000000000001C1
:100EC00001010101010100000000000000000030EC
:100ED0003000000000000000000080601804006086
:100EE00018060100000000E010080810E000000FE4
:100EF000102020100F00001010F80000000000204B
:100F0000203F202000000070080808887000003092
:100F1000282422213000003008888848300000183A
:100F2000202020110E000000C02010F80000000753
:100F30000424243F240000F80888880808000019C9
:100F4000212020110E0000E0108888180000000FFA
:100F5000112020110E0000380808C83808000000D1
:100F6000003F000000000070880808887000001C26
:100F7000222121221C0000E010080810E0000000DF
:100F8000312222110F00000000C0C000000000004C
:100F90000030300000000000008000000000000071
:100FA0008060000000000000804020100800000168
:100FB000020408102000404040404040400004042B
:100FC00004040404040000081020408000000020F5
:100FD000100804020100007048080808F000000032
:100FE000003036010000C030C828E810E0000718C3
:100FF000272423140B000000C038E0000000203C30
:1010000023020227382008F8888888700000203FD3
:10101000202020110E00C0300808080838000718EA
:1010200020202010080008F808080810E000203FE1
:10103000202020100F0008F88888E8081000203FC2
:1010400020202320180008F88888E8081000203F96
:10105000200003000000C03008080838000007180E
:101060002020221E020008F808000008F808203F8F
:10107000210101213F20000808F808080000002095
:10108000203F2020000000000808F8080800C08069
:1010900080807F00000008F888C028180800203FE2
:1010A00020012638200008F8080000000000203F3A
:1010B00020202020300008F8F800F8F80800203F31
:1010C000003F003F200008F830C00008F808203F2B
:1010D000200007183F00E01008080810E0000F107B
:1010E000202020100F0008F808080808F000203F12
:1010F000210101010000E01008080810E0000F18AD
:10110000242438504F0008F8888888887000203FD1
:101110002000030C302000708808080838000038D0
:10112000202121221C00180808F8080818000000D7
:10113000203F2000000008F808000008F808001F01
:10114000202020201F000878880000C838080000F0
:1011500007380E010000F80800F80008F800033C0A
:101160000700073C030008186880806818082030D2
:101170002C03032C30200838C800C83808000000B1
:10118000203F2000000010080808C8380800203858
:10119000262120201800000000FE020202000000AC
:1011A000007F40404000000C30C000000000000004
:1011B00000010638C00000020202FE0000000040EC
:1011C00040407F0000000000040202020400000012
:1011D000000000000000000000000000000080800F
:1011E00080808080808000020204000000000000F7
:1011F00000000000000000008080808000000019D6
:10120000242222223F2008F8008080000000003FB6
:10121000112020110E000000008080800000000ED0
:10122000112020201100000000808088F800000EAE
:10123000112020103F200000808080800000001FCF
:10124000222222221300008080F088888818002043
:10125000203F202000000000808080808000006B04
:1012600094949493600008F8008080800000203FF0
:10127000210000203F2000809898000000000020FE
:10128000203F20200000000000809898000000C04F
:101290008080807F000008F8000080808000203F70
:1012A00024022D302000000808F800000000002073
:1012B000203F202000008080808080808000203FB0
:1012C00020003F20003F8080008080800000203F81
:1012D000210000203F200000808080800000001F4F
:1012E000202020201F00808000808000000080FFE0
:1012F000A12020110E000000008080808000000EE0
:10130000112020A0FF80808080008080800020202D
:101310003F21200001000000808080808000003399
:10132000242424241900008080E080800000000034
:10133000001F202000008080000000808000001F2F
:10134000202020103F2080808000008080800001CD
:101350000E300806010080800080008080800F3001
:101360000C030C300F000080800080808000002083
:10137000312E0E31200080808000008080808081AE
:101380008E7018060100008080808080800000211F
:10139000302C2221300000000000807C020200007E
:1013A0000000003F404000000000FF00000000007F
:1013B0000000FF0000000002027C800000000040EE
:1013C000403F00000000000601010202040400008A
:1013D0000000000000000000E813000000002020D2
:0813E000680100002801000073
:04000005000000C136
:00000001FF
